{
  "contractName": "Assembly",
  "abi": [
    {
      "inputs": [
        {
          "internalType": "string",
          "name": "_identifier",
          "type": "string"
        },
        {
          "internalType": "address",
          "name": "_api",
          "type": "address"
        }
      ],
      "payable": false,
      "stateMutability": "nonpayable",
      "type": "constructor"
    },
    {
      "anonymous": false,
      "inputs": [
        {
          "indexed": false,
          "internalType": "address",
          "name": "to",
          "type": "address"
        },
        {
          "indexed": false,
          "internalType": "uint256",
          "name": "amount",
          "type": "uint256"
        }
      ],
      "name": "feePaid",
      "type": "event"
    },
    {
      "anonymous": false,
      "inputs": [
        {
          "indexed": false,
          "internalType": "contract owned",
          "name": "receiver",
          "type": "address"
        }
      ],
      "name": "ownedFallback",
      "type": "event"
    },
    {
      "anonymous": false,
      "inputs": [
        {
          "indexed": false,
          "internalType": "contract owned",
          "name": "receiver",
          "type": "address"
        },
        {
          "indexed": false,
          "internalType": "uint256",
          "name": "amount",
          "type": "uint256"
        }
      ],
      "name": "ownedPaymentReceived",
      "type": "event"
    },
    {
      "payable": true,
      "stateMutability": "payable",
      "type": "fallback"
    },
    {
      "constant": false,
      "inputs": [
        {
          "internalType": "address payable",
          "name": "newOwner",
          "type": "address"
        }
      ],
      "name": "changeOwner",
      "outputs": [],
      "payable": false,
      "stateMutability": "nonpayable",
      "type": "function"
    },
    {
      "constant": true,
      "inputs": [],
      "name": "getOwner",
      "outputs": [
        {
          "internalType": "address payable",
          "name": "",
          "type": "address"
        }
      ],
      "payable": false,
      "stateMutability": "view",
      "type": "function"
    },
    {
      "constant": true,
      "inputs": [],
      "name": "identifier",
      "outputs": [
        {
          "internalType": "string",
          "name": "",
          "type": "string"
        }
      ],
      "payable": false,
      "stateMutability": "view",
      "type": "function"
    },
    {
      "constant": true,
      "inputs": [
        {
          "internalType": "string",
          "name": "",
          "type": "string"
        }
      ],
      "name": "registrations",
      "outputs": [
        {
          "internalType": "address",
          "name": "",
          "type": "address"
        }
      ],
      "payable": false,
      "stateMutability": "view",
      "type": "function"
    },
    {
      "constant": true,
      "inputs": [
        {
          "internalType": "uint256",
          "name": "",
          "type": "uint256"
        }
      ],
      "name": "secrets",
      "outputs": [
        {
          "internalType": "string",
          "name": "",
          "type": "string"
        }
      ],
      "payable": false,
      "stateMutability": "view",
      "type": "function"
    },
    {
      "constant": true,
      "inputs": [
        {
          "internalType": "address",
          "name": "",
          "type": "address"
        }
      ],
      "name": "shareholders",
      "outputs": [
        {
          "internalType": "string",
          "name": "",
          "type": "string"
        }
      ],
      "payable": false,
      "stateMutability": "view",
      "type": "function"
    },
    {
      "constant": true,
      "inputs": [],
      "name": "shares",
      "outputs": [
        {
          "internalType": "contract Shares",
          "name": "",
          "type": "address"
        }
      ],
      "payable": false,
      "stateMutability": "view",
      "type": "function"
    },
    {
      "constant": true,
      "inputs": [
        {
          "internalType": "uint256",
          "name": "",
          "type": "uint256"
        }
      ],
      "name": "votings",
      "outputs": [
        {
          "internalType": "address",
          "name": "",
          "type": "address"
        }
      ],
      "payable": false,
      "stateMutability": "view",
      "type": "function"
    },
    {
      "constant": false,
      "inputs": [],
      "name": "withdraw",
      "outputs": [],
      "payable": false,
      "stateMutability": "nonpayable",
      "type": "function"
    },
    {
      "constant": true,
      "inputs": [],
      "name": "numSecrets",
      "outputs": [
        {
          "internalType": "uint256",
          "name": "",
          "type": "uint256"
        }
      ],
      "payable": false,
      "stateMutability": "view",
      "type": "function"
    },
    {
      "constant": true,
      "inputs": [],
      "name": "numVotings",
      "outputs": [
        {
          "internalType": "uint256",
          "name": "",
          "type": "uint256"
        }
      ],
      "payable": false,
      "stateMutability": "view",
      "type": "function"
    },
    {
      "constant": true,
      "inputs": [
        {
          "internalType": "string",
          "name": "secret",
          "type": "string"
        },
        {
          "internalType": "uint8",
          "name": "v",
          "type": "uint8"
        },
        {
          "internalType": "bytes32",
          "name": "r",
          "type": "bytes32"
        },
        {
          "internalType": "bytes32",
          "name": "s",
          "type": "bytes32"
        }
      ],
      "name": "verify",
      "outputs": [
        {
          "internalType": "address",
          "name": "sender",
          "type": "address"
        }
      ],
      "payable": false,
      "stateMutability": "pure",
      "type": "function"
    },
    {
      "constant": false,
      "inputs": [
        {
          "internalType": "string",
          "name": "secret",
          "type": "string"
        },
        {
          "internalType": "uint8",
          "name": "v",
          "type": "uint8"
        },
        {
          "internalType": "bytes32",
          "name": "r",
          "type": "bytes32"
        },
        {
          "internalType": "bytes32",
          "name": "s",
          "type": "bytes32"
        }
      ],
      "name": "register",
      "outputs": [],
      "payable": false,
      "stateMutability": "nonpayable",
      "type": "function"
    },
    {
      "constant": false,
      "inputs": [
        {
          "internalType": "address",
          "name": "shareholder",
          "type": "address"
        },
        {
          "internalType": "uint256",
          "name": "votes",
          "type": "uint256"
        }
      ],
      "name": "setShareholder",
      "outputs": [],
      "payable": false,
      "stateMutability": "nonpayable",
      "type": "function"
    },
    {
      "constant": false,
      "inputs": [
        {
          "internalType": "address[]",
          "name": "shareholder",
          "type": "address[]"
        },
        {
          "internalType": "uint256[]",
          "name": "votes",
          "type": "uint256[]"
        }
      ],
      "name": "setShareholders",
      "outputs": [],
      "payable": false,
      "stateMutability": "nonpayable",
      "type": "function"
    },
    {
      "constant": false,
      "inputs": [
        {
          "internalType": "contract VotingIfc",
          "name": "voting",
          "type": "address"
        }
      ],
      "name": "addVoting",
      "outputs": [],
      "payable": false,
      "stateMutability": "nonpayable",
      "type": "function"
    },
    {
      "constant": false,
      "inputs": [],
      "name": "lock",
      "outputs": [],
      "payable": false,
      "stateMutability": "nonpayable",
      "type": "function"
    }
  ],
  "bytecode": "0x60806040523480156200001157600080fd5b506040516200215838038062002158833981810160405260408110156200003757600080fd5b81019080805160405193929190846401000000008211156200005857600080fd5b9083019060208201858111156200006e57600080fd5b82516401000000008111828201881017156200008957600080fd5b82525081516020918201929091019080838360005b83811015620000b85781810151838201526020016200009e565b50505050905090810190601f168015620000e65780820380516001836020036101000a031916815260200191505b5060405260209081015160008054336001600160a01b031991821617909155600180549091166001600160a01b038316179055845190935062000130925060079185019062000186565b506040516200013f906200020b565b604051809103906000f0801580156200015c573d6000803e3d6000fd5b50600280546001600160a01b0319166001600160a01b039290921691909117905550620002399050565b828054600181600116156101000203166002900490600052602060002090601f016020900481019282601f10620001c957805160ff1916838001178555620001f9565b82800160010185558215620001f9579182015b82811115620001f9578251825591602001919060010190620001dc565b506200020792915062000219565b5090565b610c0d806200154b83390190565b6200023691905b8082111562000207576000815560010162000220565b90565b61130280620002496000396000f3fe6080604052600436106100fe5760003560e01c8063893d20e811610095578063a6f9dae111610064578063a6f9dae114610559578063a94a2cf31461058c578063c8d83d35146105c5578063de9702a4146106f5578063f83d08ba1461071f576100fe565b8063893d20e814610436578063988574fb1461044b578063a598d03c1461047e578063a5ba7b4c146104a8576100fe565b8063609f8fe2116100d1578063609f8fe21461028e5780636f460f951461034d5780637998a1c4146103625780638533426f14610377576100fe565b806303314efa14610179578063049b81f4146101aa5780633ccfd60b146101d15780635c2930ad146101e6575b3415610143576040805130815234602082015281517f8fd6b35340456e2a6b48f69253f74dfd4d2e7162c8bffe82ebeb2c6023510d37929181900390910190a1610177565b6040805130815290517f38d054b4060bd74d4e61feceaa76523abec62fbee912392a3cce6d2c4a15388e9181900360200190a15b005b34801561018557600080fd5b5061018e610734565b604080516001600160a01b039092168252519081900360200190f35b3480156101b657600080fd5b506101bf610743565b60408051918252519081900360200190f35b3480156101dd57600080fd5b5061017761074a565b3480156101f257600080fd5b506102196004803603602081101561020957600080fd5b50356001600160a01b03166107d0565b6040805160208082528351818301528351919283929083019185019080838360005b8381101561025357818101518382015260200161023b565b50505050905090810190601f1680156102805780820380516001836020036101000a031916815260200191505b509250505060405180910390f35b34801561029a57600080fd5b5061018e600480360360808110156102b157600080fd5b810190602081018135600160201b8111156102cb57600080fd5b8201836020820111156102dd57600080fd5b803590602001918460018302840111600160201b831117156102fe57600080fd5b91908080601f0160208091040260200160405190810160405280939291908181526020018383808284376000920191909152509295505060ff833516935050506020810135906040013561086b565b34801561035957600080fd5b506101bf6108e2565b34801561036e57600080fd5b506102196108e8565b34801561038357600080fd5b506101776004803603608081101561039a57600080fd5b810190602081018135600160201b8111156103b457600080fd5b8201836020820111156103c657600080fd5b803590602001918460018302840111600160201b831117156103e757600080fd5b91908080601f0160208091040260200160405190810160405280939291908181526020018383808284376000920191909152509295505060ff8335169350505060208101359060400135610943565b34801561044257600080fd5b5061018e610c76565b34801561045757600080fd5b506101776004803603602081101561046e57600080fd5b50356001600160a01b0316610cd0565b34801561048a57600080fd5b5061018e600480360360208110156104a157600080fd5b5035610e2a565b3480156104b457600080fd5b5061018e600480360360208110156104cb57600080fd5b810190602081018135600160201b8111156104e557600080fd5b8201836020820111156104f757600080fd5b803590602001918460018302840111600160201b8311171561051857600080fd5b91908080601f016020809104026020016040519081016040528093929190818152602001838380828437600092019190915250929550610e51945050505050565b34801561056557600080fd5b506101776004803603602081101561057c57600080fd5b50356001600160a01b0316610e77565b34801561059857600080fd5b50610177600480360360408110156105af57600080fd5b506001600160a01b038135169060200135610ee2565b3480156105d157600080fd5b50610177600480360360408110156105e857600080fd5b810190602081018135600160201b81111561060257600080fd5b82018360208201111561061457600080fd5b803590602001918460208302840111600160201b8311171561063557600080fd5b9190808060200260200160405190810160405280939291908181526020018383602002808284376000920191909152509295949360208101935035915050600160201b81111561068457600080fd5b82018360208201111561069657600080fd5b803590602001918460208302840111600160201b831117156106b757600080fd5b919080806020026020016040519081016040528093929190818152602001838360200280828437600092019190915250929550610f9c945050505050565b34801561070157600080fd5b506102196004803603602081101561071857600080fd5b50356110b4565b34801561072b57600080fd5b50610177611127565b6002546001600160a01b031681565b6005545b90565b6000546001600160a01b031633146107935760405162461bcd60e51b815260040180806020018281038252602d815260200180611273602d913960400191505060405180910390fd5b600080546040516001600160a01b03909116914780156108fc02929091818181858888f193505050501580156107cd573d6000803e3d6000fd5b50565b60046020908152600091825260409182902080548351601f6002600019610100600186161502019093169290920491820184900484028101840190945280845290918301828280156108635780601f1061083857610100808354040283529160200191610863565b820191906000526020600020905b81548152906001019060200180831161084657829003601f168201915b505050505081565b835160208086019190912060408051600080825281850180845284905260ff88168284015260608201879052608082018690529151919360019260a080840193601f198301929081900390910190855afa1580156108cd573d6000803e3d6000fd5b5050604051601f190151979650505050505050565b60065490565b6007805460408051602060026001851615610100026000190190941693909304601f810184900484028201840190925281815292918301828280156108635780601f1061083857610100808354040283529160200191610863565b6001546001600160a01b031633146109a2576040805162461bcd60e51b815260206004820152601e60248201527f63616c6c206f6e6c7920616c6c6f7765642066726f6d20746865206170690000604482015290519081900360640190fd5b60008451116109ed576040805162461bcd60e51b81526020600482015260126024820152711b9bdd0818481d985b1a59081cd958dc995d60721b604482015290519081900360640190fd5b60006109fb8585858561086b565b90506001600160a01b038116610a425760405162461bcd60e51b815260040180806020018281038252602e8152602001806112a0602e913960400191505060405180910390fd5b60006001600160a01b03166003866040518082805190602001908083835b60208310610a7f5780518252601f199092019160209182019101610a60565b51815160209384036101000a60001901801990921691161790529201948552506040519384900301909220546001600160a01b0316929092149150610b0d9050576040805162461bcd60e51b815260206004820152601c60248201527f7365637265742068617320616c7265616479206265656e207573656400000000604482015290519081900360640190fd5b6001600160a01b0381166000908152600460205260409020546002600019610100600184161502019091160415610b8b576040805162461bcd60e51b815260206004820152601a60248201527f796f752061726520616c72656164792072656769737465726564000000000000604482015290519081900360640190fd5b806003866040518082805190602001908083835b60208310610bbe5780518252601f199092019160209182019101610b9f565b51815160209384036101000a60001901801990921691161790529201948552506040805194859003820190942080546001600160a01b0319166001600160a01b03968716179055938516600090815260048552929092208851610c289491935090890191506111da565b5060058054600181018083556000929092528651610c6d917f036b6384b5eca791c62761152d0c79bb0604c104a5fb6f4eb0703f3154bb3db0019060208901906111da565b50505050505050565b600080546001600160a01b03163314610cc05760405162461bcd60e51b815260040180806020018281038252602d815260200180611273602d913960400191505060405180910390fd5b506000546001600160a01b031690565b6000546001600160a01b03163314610d195760405162461bcd60e51b815260040180806020018281038252602d815260200180611273602d913960400191505060405180910390fd5b806001600160a01b0316635baf3e8d6040518163ffffffff1660e01b815260040160206040518083038186803b158015610d5257600080fd5b505afa158015610d66573d6000803e3d6000fd5b505050506040513d6020811015610d7c57600080fd5b50516002546001600160a01b03908116911614610dd8576040805162461bcd60e51b815260206004820152601560248201527477726f6e6720746f6b656e20696e20766f74696e6760581b604482015290519081900360640190fd5b600680546001810182556000919091527ff652222313e28459528d920b65115c16c04f3efc82aaedc97be59f3f377c0d3f0180546001600160a01b0319166001600160a01b0392909216919091179055565b60068181548110610e3757fe5b6000918252602090912001546001600160a01b0316905081565b80516020818301810180516003825292820191909301209152546001600160a01b031681565b6000546001600160a01b03163314610ec05760405162461bcd60e51b815260040180806020018281038252602d815260200180611273602d913960400191505060405180910390fd5b600080546001600160a01b0319166001600160a01b0392909216919091179055565b6000546001600160a01b03163314610f2b5760405162461bcd60e51b815260040180806020018281038252602d815260200180611273602d913960400191505060405180910390fd5b6002546040805163a94a2cf360e01b81526001600160a01b038581166004830152602482018590529151919092169163a94a2cf391604480830192600092919082900301818387803b158015610f8057600080fd5b505af1158015610f94573d6000803e3d6000fd5b505050505050565b6000546001600160a01b03163314610fe55760405162461bcd60e51b815260040180806020018281038252602d815260200180611273602d913960400191505060405180910390fd5b6002546040805163c8d83d3560e01b8152600481019182528451604482015284516001600160a01b039093169263c8d83d359286928692829160248101916064909101906020808801910280838360005b8381101561104e578181015183820152602001611036565b50505050905001838103825284818151815260200191508051906020019060200280838360005b8381101561108d578181015183820152602001611075565b50505050905001945050505050600060405180830381600087803b158015610f8057600080fd5b600581815481106110c157fe5b600091825260209182902001805460408051601f60026000196101006001871615020190941693909304928301859004850281018501909152818152935090918301828280156108635780601f1061083857610100808354040283529160200191610863565b6000546001600160a01b031633146111705760405162461bcd60e51b815260040180806020018281038252602d815260200180611273602d913960400191505060405180910390fd5b600260009054906101000a90046001600160a01b03166001600160a01b031663f83d08ba6040518163ffffffff1660e01b8152600401600060405180830381600087803b1580156111c057600080fd5b505af11580156111d4573d6000803e3d6000fd5b50505050565b828054600181600116156101000203166002900490600052602060002090601f016020900481019282601f1061121b57805160ff1916838001178555611248565b82800160010185558215611248579182015b8281111561124857825182559160200191906001019061122d565b50611254929150611258565b5090565b61074791905b80821115611254576000815560010161125e56fe6163636573732064656e6965642c20796f7520617265206e6f742074686520636f6e7472616374206f776e65726964656e74696669636174696f6e206661696c65642064756520746f20696e76616c6964207369676e6174757265a265627a7a72315820a59dd61e28c3916e17e8ea308c50df4a58be786984ae7bfe9de65ee457aea88864736f6c634300050f00326080604052600060028190556003805460ff1916905580546001600160a01b03191633179055610bd9806100346000396000f3fe6080604052600436106100f35760003560e01c806395d89b411161008a578063c8d83d3511610059578063c8d83d35146103d4578063cf30901214610508578063dd62ed3e1461051d578063f83d08ba14610558576100f3565b806395d89b4114610353578063a6f9dae114610368578063a9059cbb146101f8578063a94a2cf31461039b576100f3565b8063313ce567116100c6578063313ce567146102af5780633ccfd60b146102da57806370a08231146102ef578063893d20e814610322576100f3565b806306fdde031461016e578063095ea7b3146101f857806318160ddd1461024557806323b872dd1461026c575b3415610138576040805130815234602082015281517f8fd6b35340456e2a6b48f69253f74dfd4d2e7162c8bffe82ebeb2c6023510d37929181900390910190a161016c565b6040805130815290517f38d054b4060bd74d4e61feceaa76523abec62fbee912392a3cce6d2c4a15388e9181900360200190a15b005b34801561017a57600080fd5b5061018361056d565b6040805160208082528351818301528351919283929083019185019080838360005b838110156101bd5781810151838201526020016101a5565b50505050905090810190601f1680156101ea5780820380516001836020036101000a031916815260200191505b509250505060405180910390f35b34801561020457600080fd5b506102316004803603604081101561021b57600080fd5b506001600160a01b03813516906020013561059d565b604080519115158252519081900360200190f35b34801561025157600080fd5b5061025a6105a5565b60408051918252519081900360200190f35b34801561027857600080fd5b506102316004803603606081101561028f57600080fd5b506001600160a01b038135811691602081013590911690604001356105ab565b3480156102bb57600080fd5b506102c46105b4565b6040805160ff9092168252519081900360200190f35b3480156102e657600080fd5b5061016c6105b9565b3480156102fb57600080fd5b5061025a6004803603602081101561031257600080fd5b50356001600160a01b031661063f565b34801561032e57600080fd5b5061033761065a565b604080516001600160a01b039092168252519081900360200190f35b34801561035f57600080fd5b506101836106b4565b34801561037457600080fd5b5061016c6004803603602081101561038b57600080fd5b50356001600160a01b03166106d0565b3480156103a757600080fd5b5061016c600480360360408110156103be57600080fd5b506001600160a01b03813516906020013561073b565b3480156103e057600080fd5b5061016c600480360360408110156103f757600080fd5b81019060208101813564010000000081111561041257600080fd5b82018360208201111561042457600080fd5b8035906020019184602083028401116401000000008311171561044657600080fd5b919080806020026020016040519081016040528093929190818152602001838360200280828437600092019190915250929594936020810193503591505064010000000081111561049657600080fd5b8201836020820111156104a857600080fd5b803590602001918460208302840111640100000000831117156104ca57600080fd5b919080806020026020016040519081016040528093929190818152602001838360200280828437600092019190915250929550610875945050505050565b34801561051457600080fd5b50610231610abe565b34801561052957600080fd5b5061025a6004803603604081101561054057600080fd5b506001600160a01b038135811691602001351661059d565b34801561056457600080fd5b5061016c610ac7565b60408051808201909152601681527514da185c995a1bdb19195c8813585b9859d95b595b9d60521b602082015290565b600092915050565b60025490565b60009392505050565b600090565b6000546001600160a01b031633146106025760405162461bcd60e51b815260040180806020018281038252602d815260200180610b78602d913960400191505060405180910390fd5b600080546040516001600160a01b03909116914780156108fc02929091818181858888f1935050505015801561063c573d6000803e3d6000fd5b50565b6001600160a01b031660009081526001602052604090205490565b600080546001600160a01b031633146106a45760405162461bcd60e51b815260040180806020018281038252602d815260200180610b78602d913960400191505060405180910390fd5b506000546001600160a01b031690565b604080518082019091526002815261048d60f31b602082015290565b6000546001600160a01b031633146107195760405162461bcd60e51b815260040180806020018281038252602d815260200180610b78602d913960400191505060405180910390fd5b600080546001600160a01b0319166001600160a01b0392909216919091179055565b6000546001600160a01b031633146107845760405162461bcd60e51b815260040180806020018281038252602d815260200180610b78602d913960400191505060405180910390fd5b60035460ff16156107dc576040805162461bcd60e51b815260206004820152601f60248201527f636f6e66696775726174696f6e20697320616c7265616479206c6f636b656400604482015290519081900360640190fd5b6001600160a01b038216600090815260016020526040902054600254101561084b576040805162461bcd60e51b815260206004820152601e60248201527f696e7465726e616c206572726f72206f6e20746f74616c20737570706c790000604482015290519081900360640190fd5b6001600160a01b039091166000908152600160205260409020805460028054919091038301905555565b6000546001600160a01b031633146108be5760405162461bcd60e51b815260040180806020018281038252602d815260200180610b78602d913960400191505060405180910390fd5b60035460ff1615610916576040805162461bcd60e51b815260206004820152601f60248201527f636f6e66696775726174696f6e20697320616c7265616479206c6f636b656400604482015290519081900360640190fd5b8051825114610963576040805162461bcd60e51b81526020600482015260146024820152730c2e4e4c2f240e6d2f4ca40dad2e6e6dac2e8c6d60631b604482015290519081900360640190fd5b60005b8151811015610ab9576001600084838151811061097f57fe5b60200260200101516001600160a01b03166001600160a01b031681526020019081526020016000205460025410156109fe576040805162461bcd60e51b815260206004820152601e60248201527f696e7465726e616c206572726f72206f6e20746f74616c20737570706c790000604482015290519081900360640190fd5b60016000848381518110610a0e57fe5b60200260200101516001600160a01b03166001600160a01b0316815260200190815260200160002054600260008282540392505081905550818181518110610a5257fe5b6020026020010151600260008282540192505081905550818181518110610a7557fe5b602002602001015160016000858481518110610a8d57fe5b6020908102919091018101516001600160a01b0316825281019190915260400160002055600101610966565b505050565b60035460ff1681565b6000546001600160a01b03163314610b105760405162461bcd60e51b815260040180806020018281038252602d815260200180610b78602d913960400191505060405180910390fd5b60035460ff1615610b68576040805162461bcd60e51b815260206004820152601f60248201527f636f6e66696775726174696f6e20697320616c7265616479206c6f636b656400604482015290519081900360640190fd5b6003805460ff1916600117905556fe6163636573732064656e6965642c20796f7520617265206e6f742074686520636f6e7472616374206f776e6572a265627a7a72315820cc7a091c3fdded9bbaa7e32d4fcac859da5d432d1d4409c248d1033d1c94641364736f6c634300050f0032",
  "source": "pragma solidity >=0.0;\r\n\r\nimport \"./owned.sol\";\r\nimport \"./hasapi.sol\";\r\nimport \"./Shares.sol\";\r\nimport \"./VotingIfc.sol\";\r\n\r\ncontract Assembly is owned, hasapi {\r\n    Shares public shares; // shareholder token\r\n    mapping(string => address) public registrations; // users that registered, maps secret to address\r\n    mapping(address => string) public shareholders; // list of registered shareholders\r\n    string[] public secrets; // list of registered secrets\r\n    address[] public votings; // list of votings\r\n    string public identifier; // you my set any text here, e.w. th ecompany name\r\n\r\n    constructor(string memory _identifier, address _api) public hasapi(_api) {\r\n        identifier = _identifier;\r\n        shares = new Shares();\r\n    }\r\n\r\n    function numSecrets() public view returns (uint256) {\r\n        return secrets.length;\r\n    }\r\n\r\n    function numVotings() public view returns (uint256) {\r\n        return votings.length;\r\n    }\r\n\r\n    function verify(\r\n        string memory secret,\r\n        uint8 v,\r\n        bytes32 r,\r\n        bytes32 s\r\n    ) public pure returns (address sender) {\r\n        bytes32 hash = keccak256(bytes(secret));\r\n        sender = ecrecover(hash, v, r, s);\r\n    }\r\n\r\n    // shareholder's access, security by signed messages\r\n\r\n    function register(\r\n        string memory secret,\r\n        uint8 v,\r\n        bytes32 r,\r\n        bytes32 s\r\n    ) public apionly {\r\n        require(bytes(secret).length > 0, \"not a valid secret\");\r\n        address shareholder = verify(secret, v, r, s);\r\n        require(\r\n            shareholder != address(0x0),\r\n            \"identification failed due to invalid signature\"\r\n        );\r\n        require(\r\n            registrations[secret] == address(0x0),\r\n            \"secret has already been used\"\r\n        );\r\n        require(\r\n            bytes(shareholders[shareholder]).length == 0,\r\n            \"you are already registered\"\r\n        );\r\n        registrations[secret] = shareholder;\r\n        shareholders[shareholder] = secret;\r\n        secrets.push(secret);\r\n    }\r\n\r\n    // administration, restricted to assembly owner\r\n\r\n    function setShareholder(address shareholder, uint256 votes)\r\n        public\r\n        restrict\r\n    {\r\n        shares.setShareholder(shareholder, votes);\r\n    }\r\n\r\n    function setShareholders(\r\n        address[] memory shareholder,\r\n        uint256[] memory votes\r\n    ) public restrict {\r\n        shares.setShareholders(shareholder, votes);\r\n    }\r\n\r\n    function addVoting(VotingIfc voting) public restrict {\r\n        require(shares == voting.tokenErc20(), \"wrong token in voting\");\r\n        votings.push(address(voting));\r\n    }\r\n\r\n    function lock() public restrict {\r\n        shares.lock();\r\n    }\r\n}\r\n",
  "sourcePath": "D:/Development/github/digitalgv/contracts/Assembly.sol",
  "compiler": {
    "name": "solc",
    "version": "0.5.15+commit.6a57276f.Emscripten.clang"
  },
  "schemaVersion": "3.0.14",
  "updatedAt": "2020-09-10T18:26:10.016Z",
  "devdoc": {
    "methods": {}
  },
  "userdoc": {
    "methods": {}
  }
}