{
  "contractName": "owned",
  "abi": [
    {
      "inputs": [],
      "payable": false,
      "stateMutability": "nonpayable",
      "type": "constructor"
    },
    {
      "anonymous": false,
      "inputs": [
        {
          "indexed": false,
          "internalType": "address",
          "name": "to",
          "type": "address"
        },
        {
          "indexed": false,
          "internalType": "uint256",
          "name": "amount",
          "type": "uint256"
        }
      ],
      "name": "feePaid",
      "type": "event"
    },
    {
      "anonymous": false,
      "inputs": [
        {
          "indexed": false,
          "internalType": "contract owned",
          "name": "receiver",
          "type": "address"
        }
      ],
      "name": "ownedFallback",
      "type": "event"
    },
    {
      "anonymous": false,
      "inputs": [
        {
          "indexed": false,
          "internalType": "contract owned",
          "name": "receiver",
          "type": "address"
        },
        {
          "indexed": false,
          "internalType": "uint256",
          "name": "amount",
          "type": "uint256"
        }
      ],
      "name": "ownedPaymentReceived",
      "type": "event"
    },
    {
      "payable": true,
      "stateMutability": "payable",
      "type": "fallback"
    },
    {
      "constant": true,
      "inputs": [],
      "name": "getOwner",
      "outputs": [
        {
          "internalType": "address payable",
          "name": "",
          "type": "address"
        }
      ],
      "payable": false,
      "stateMutability": "view",
      "type": "function"
    },
    {
      "constant": false,
      "inputs": [
        {
          "internalType": "address payable",
          "name": "newOwner",
          "type": "address"
        }
      ],
      "name": "changeOwner",
      "outputs": [],
      "payable": false,
      "stateMutability": "nonpayable",
      "type": "function"
    },
    {
      "constant": false,
      "inputs": [],
      "name": "withdraw",
      "outputs": [],
      "payable": false,
      "stateMutability": "nonpayable",
      "type": "function"
    }
  ],
  "bytecode": "0x608060405234801561001057600080fd5b50600080546001600160a01b031916331790556102d5806100326000396000f3fe6080604052600436106100345760003560e01c80633ccfd60b146100af578063893d20e8146100c4578063a6f9dae1146100f5575b3415610079576040805130815234602082015281517f8fd6b35340456e2a6b48f69253f74dfd4d2e7162c8bffe82ebeb2c6023510d37929181900390910190a16100ad565b6040805130815290517f38d054b4060bd74d4e61feceaa76523abec62fbee912392a3cce6d2c4a15388e9181900360200190a15b005b3480156100bb57600080fd5b506100ad610128565b3480156100d057600080fd5b506100d96101ae565b604080516001600160a01b039092168252519081900360200190f35b34801561010157600080fd5b506100ad6004803603602081101561011857600080fd5b50356001600160a01b0316610208565b6000546001600160a01b031633146101715760405162461bcd60e51b815260040180806020018281038252602d815260200180610274602d913960400191505060405180910390fd5b600080546040516001600160a01b03909116914780156108fc02929091818181858888f193505050501580156101ab573d6000803e3d6000fd5b50565b600080546001600160a01b031633146101f85760405162461bcd60e51b815260040180806020018281038252602d815260200180610274602d913960400191505060405180910390fd5b506000546001600160a01b031690565b6000546001600160a01b031633146102515760405162461bcd60e51b815260040180806020018281038252602d815260200180610274602d913960400191505060405180910390fd5b600080546001600160a01b0319166001600160a01b039290921691909117905556fe6163636573732064656e6965642c20796f7520617265206e6f742074686520636f6e7472616374206f776e6572a265627a7a7231582031f45b7b9d0d9cbd4b769a03fd30b8b7e6eeb01909ad0f1f56e3dfd425eb4e8464736f6c634300050f0032",
  "source": "pragma solidity >=0.0;\r\n\r\ncontract owned {\r\n    address payable internal owner;\r\n    event feePaid(address to, uint amount);\r\n    // creator is owner\r\n    constructor() public {\r\n        owner = msg.sender;\r\n    }\r\n    // only owner is allowed to call restricted function\r\n    modifier restrict {\r\n        require(msg.sender==owner, \"access denied, you are not the contract owner\");\r\n        _;\r\n    }\r\n    // requires a fee for the owner\r\n    modifier fee(uint amount) {\r\n        require(msg.value>=amount, \"not enough payment for the fee\");\r\n        _;\r\n        owner.transfer(amount);\r\n        emit feePaid(owner, amount);\r\n    }\r\n\r\n    function getOwner() view public restrict returns (address payable) {\r\n        return owner;\r\n    }\r\n\r\n    // allow update of the owner\r\n    function changeOwner(address payable newOwner) public restrict {\r\n        owner = newOwner;\r\n    }\r\n\r\n    // move whole balance to the owner\r\n    function withdraw() public restrict {\r\n        owner.transfer(address(this).balance);\r\n    }\r\n\r\n    // get anonymous money in payable fallback\r\n    event ownedPaymentReceived(owned receiver, uint256 amount);\r\n    event ownedFallback(owned receiver);\r\n    /*receive*/function() /*virtual*/ external payable {\r\n        if (msg.value>0) {\r\n            emit ownedPaymentReceived(this, msg.value);\r\n        } else {\r\n            emit ownedFallback(this);\r\n        }\r\n    }\r\n\r\n}\r\n",
  "sourcePath": "D:\\Development\\github\\digitalgv\\contracts\\owned.sol",
  "compiler": {
    "name": "solc",
    "version": "0.5.15+commit.6a57276f.Emscripten.clang"
  },
  "schemaVersion": "3.0.14",
  "updatedAt": "2020-09-10T18:31:12.434Z",
  "devdoc": {
    "methods": {}
  },
  "userdoc": {
    "methods": {}
  }
}