{
  "contractName": "Shares",
  "abi": [
    {
      "anonymous": false,
      "inputs": [
        {
          "indexed": true,
          "internalType": "address",
          "name": "_owner",
          "type": "address"
        },
        {
          "indexed": true,
          "internalType": "address",
          "name": "_spender",
          "type": "address"
        },
        {
          "indexed": false,
          "internalType": "uint256",
          "name": "_value",
          "type": "uint256"
        }
      ],
      "name": "Approval",
      "type": "event"
    },
    {
      "anonymous": false,
      "inputs": [
        {
          "indexed": true,
          "internalType": "address",
          "name": "_from",
          "type": "address"
        },
        {
          "indexed": true,
          "internalType": "address",
          "name": "_to",
          "type": "address"
        },
        {
          "indexed": false,
          "internalType": "uint256",
          "name": "_value",
          "type": "uint256"
        }
      ],
      "name": "Transfer",
      "type": "event"
    },
    {
      "anonymous": false,
      "inputs": [
        {
          "indexed": false,
          "internalType": "address",
          "name": "to",
          "type": "address"
        },
        {
          "indexed": false,
          "internalType": "uint256",
          "name": "amount",
          "type": "uint256"
        }
      ],
      "name": "feePaid",
      "type": "event"
    },
    {
      "anonymous": false,
      "inputs": [
        {
          "indexed": false,
          "internalType": "contract owned",
          "name": "receiver",
          "type": "address"
        }
      ],
      "name": "ownedFallback",
      "type": "event"
    },
    {
      "anonymous": false,
      "inputs": [
        {
          "indexed": false,
          "internalType": "contract owned",
          "name": "receiver",
          "type": "address"
        },
        {
          "indexed": false,
          "internalType": "uint256",
          "name": "amount",
          "type": "uint256"
        }
      ],
      "name": "ownedPaymentReceived",
      "type": "event"
    },
    {
      "payable": true,
      "stateMutability": "payable",
      "type": "fallback"
    },
    {
      "constant": false,
      "inputs": [
        {
          "internalType": "address payable",
          "name": "newOwner",
          "type": "address"
        }
      ],
      "name": "changeOwner",
      "outputs": [],
      "payable": false,
      "stateMutability": "nonpayable",
      "type": "function"
    },
    {
      "constant": true,
      "inputs": [],
      "name": "getOwner",
      "outputs": [
        {
          "internalType": "address payable",
          "name": "",
          "type": "address"
        }
      ],
      "payable": false,
      "stateMutability": "view",
      "type": "function"
    },
    {
      "constant": true,
      "inputs": [],
      "name": "locked",
      "outputs": [
        {
          "internalType": "bool",
          "name": "",
          "type": "bool"
        }
      ],
      "payable": false,
      "stateMutability": "view",
      "type": "function"
    },
    {
      "constant": false,
      "inputs": [],
      "name": "withdraw",
      "outputs": [],
      "payable": false,
      "stateMutability": "nonpayable",
      "type": "function"
    },
    {
      "constant": false,
      "inputs": [
        {
          "internalType": "address",
          "name": "shareholder",
          "type": "address"
        },
        {
          "internalType": "uint256",
          "name": "votes",
          "type": "uint256"
        }
      ],
      "name": "setShareholder",
      "outputs": [],
      "payable": false,
      "stateMutability": "nonpayable",
      "type": "function"
    },
    {
      "constant": false,
      "inputs": [
        {
          "internalType": "address[]",
          "name": "shareholder",
          "type": "address[]"
        },
        {
          "internalType": "uint256[]",
          "name": "votes",
          "type": "uint256[]"
        }
      ],
      "name": "setShareholders",
      "outputs": [],
      "payable": false,
      "stateMutability": "nonpayable",
      "type": "function"
    },
    {
      "constant": false,
      "inputs": [],
      "name": "lock",
      "outputs": [],
      "payable": false,
      "stateMutability": "nonpayable",
      "type": "function"
    },
    {
      "constant": true,
      "inputs": [],
      "name": "name",
      "outputs": [
        {
          "internalType": "string",
          "name": "",
          "type": "string"
        }
      ],
      "payable": false,
      "stateMutability": "view",
      "type": "function"
    },
    {
      "constant": true,
      "inputs": [],
      "name": "symbol",
      "outputs": [
        {
          "internalType": "string",
          "name": "",
          "type": "string"
        }
      ],
      "payable": false,
      "stateMutability": "view",
      "type": "function"
    },
    {
      "constant": true,
      "inputs": [],
      "name": "decimals",
      "outputs": [
        {
          "internalType": "uint8",
          "name": "",
          "type": "uint8"
        }
      ],
      "payable": false,
      "stateMutability": "view",
      "type": "function"
    },
    {
      "constant": true,
      "inputs": [],
      "name": "totalSupply",
      "outputs": [
        {
          "internalType": "uint256",
          "name": "",
          "type": "uint256"
        }
      ],
      "payable": false,
      "stateMutability": "view",
      "type": "function"
    },
    {
      "constant": true,
      "inputs": [
        {
          "internalType": "address",
          "name": "shareholder",
          "type": "address"
        }
      ],
      "name": "balanceOf",
      "outputs": [
        {
          "internalType": "uint256",
          "name": "balance",
          "type": "uint256"
        }
      ],
      "payable": false,
      "stateMutability": "view",
      "type": "function"
    },
    {
      "constant": false,
      "inputs": [
        {
          "internalType": "address",
          "name": "",
          "type": "address"
        },
        {
          "internalType": "uint256",
          "name": "",
          "type": "uint256"
        }
      ],
      "name": "transfer",
      "outputs": [
        {
          "internalType": "bool",
          "name": "success",
          "type": "bool"
        }
      ],
      "payable": false,
      "stateMutability": "nonpayable",
      "type": "function"
    },
    {
      "constant": false,
      "inputs": [
        {
          "internalType": "address",
          "name": "",
          "type": "address"
        },
        {
          "internalType": "address",
          "name": "",
          "type": "address"
        },
        {
          "internalType": "uint256",
          "name": "",
          "type": "uint256"
        }
      ],
      "name": "transferFrom",
      "outputs": [
        {
          "internalType": "bool",
          "name": "success",
          "type": "bool"
        }
      ],
      "payable": false,
      "stateMutability": "nonpayable",
      "type": "function"
    },
    {
      "constant": false,
      "inputs": [
        {
          "internalType": "address",
          "name": "",
          "type": "address"
        },
        {
          "internalType": "uint256",
          "name": "",
          "type": "uint256"
        }
      ],
      "name": "approve",
      "outputs": [
        {
          "internalType": "bool",
          "name": "success",
          "type": "bool"
        }
      ],
      "payable": false,
      "stateMutability": "nonpayable",
      "type": "function"
    },
    {
      "constant": true,
      "inputs": [
        {
          "internalType": "address",
          "name": "",
          "type": "address"
        },
        {
          "internalType": "address",
          "name": "",
          "type": "address"
        }
      ],
      "name": "allowance",
      "outputs": [
        {
          "internalType": "uint256",
          "name": "remaining",
          "type": "uint256"
        }
      ],
      "payable": false,
      "stateMutability": "view",
      "type": "function"
    }
  ],
  "bytecode": "0x6080604052600060028190556003805460ff1916905580546001600160a01b03191633179055610bd9806100346000396000f3fe6080604052600436106100f35760003560e01c806395d89b411161008a578063c8d83d3511610059578063c8d83d35146103d4578063cf30901214610508578063dd62ed3e1461051d578063f83d08ba14610558576100f3565b806395d89b4114610353578063a6f9dae114610368578063a9059cbb146101f8578063a94a2cf31461039b576100f3565b8063313ce567116100c6578063313ce567146102af5780633ccfd60b146102da57806370a08231146102ef578063893d20e814610322576100f3565b806306fdde031461016e578063095ea7b3146101f857806318160ddd1461024557806323b872dd1461026c575b3415610138576040805130815234602082015281517f8fd6b35340456e2a6b48f69253f74dfd4d2e7162c8bffe82ebeb2c6023510d37929181900390910190a161016c565b6040805130815290517f38d054b4060bd74d4e61feceaa76523abec62fbee912392a3cce6d2c4a15388e9181900360200190a15b005b34801561017a57600080fd5b5061018361056d565b6040805160208082528351818301528351919283929083019185019080838360005b838110156101bd5781810151838201526020016101a5565b50505050905090810190601f1680156101ea5780820380516001836020036101000a031916815260200191505b509250505060405180910390f35b34801561020457600080fd5b506102316004803603604081101561021b57600080fd5b506001600160a01b03813516906020013561059d565b604080519115158252519081900360200190f35b34801561025157600080fd5b5061025a6105a5565b60408051918252519081900360200190f35b34801561027857600080fd5b506102316004803603606081101561028f57600080fd5b506001600160a01b038135811691602081013590911690604001356105ab565b3480156102bb57600080fd5b506102c46105b4565b6040805160ff9092168252519081900360200190f35b3480156102e657600080fd5b5061016c6105b9565b3480156102fb57600080fd5b5061025a6004803603602081101561031257600080fd5b50356001600160a01b031661063f565b34801561032e57600080fd5b5061033761065a565b604080516001600160a01b039092168252519081900360200190f35b34801561035f57600080fd5b506101836106b4565b34801561037457600080fd5b5061016c6004803603602081101561038b57600080fd5b50356001600160a01b03166106d0565b3480156103a757600080fd5b5061016c600480360360408110156103be57600080fd5b506001600160a01b03813516906020013561073b565b3480156103e057600080fd5b5061016c600480360360408110156103f757600080fd5b81019060208101813564010000000081111561041257600080fd5b82018360208201111561042457600080fd5b8035906020019184602083028401116401000000008311171561044657600080fd5b919080806020026020016040519081016040528093929190818152602001838360200280828437600092019190915250929594936020810193503591505064010000000081111561049657600080fd5b8201836020820111156104a857600080fd5b803590602001918460208302840111640100000000831117156104ca57600080fd5b919080806020026020016040519081016040528093929190818152602001838360200280828437600092019190915250929550610875945050505050565b34801561051457600080fd5b50610231610abe565b34801561052957600080fd5b5061025a6004803603604081101561054057600080fd5b506001600160a01b038135811691602001351661059d565b34801561056457600080fd5b5061016c610ac7565b60408051808201909152601681527514da185c995a1bdb19195c8813585b9859d95b595b9d60521b602082015290565b600092915050565b60025490565b60009392505050565b600090565b6000546001600160a01b031633146106025760405162461bcd60e51b815260040180806020018281038252602d815260200180610b78602d913960400191505060405180910390fd5b600080546040516001600160a01b03909116914780156108fc02929091818181858888f1935050505015801561063c573d6000803e3d6000fd5b50565b6001600160a01b031660009081526001602052604090205490565b600080546001600160a01b031633146106a45760405162461bcd60e51b815260040180806020018281038252602d815260200180610b78602d913960400191505060405180910390fd5b506000546001600160a01b031690565b604080518082019091526002815261048d60f31b602082015290565b6000546001600160a01b031633146107195760405162461bcd60e51b815260040180806020018281038252602d815260200180610b78602d913960400191505060405180910390fd5b600080546001600160a01b0319166001600160a01b0392909216919091179055565b6000546001600160a01b031633146107845760405162461bcd60e51b815260040180806020018281038252602d815260200180610b78602d913960400191505060405180910390fd5b60035460ff16156107dc576040805162461bcd60e51b815260206004820152601f60248201527f636f6e66696775726174696f6e20697320616c7265616479206c6f636b656400604482015290519081900360640190fd5b6001600160a01b038216600090815260016020526040902054600254101561084b576040805162461bcd60e51b815260206004820152601e60248201527f696e7465726e616c206572726f72206f6e20746f74616c20737570706c790000604482015290519081900360640190fd5b6001600160a01b039091166000908152600160205260409020805460028054919091038301905555565b6000546001600160a01b031633146108be5760405162461bcd60e51b815260040180806020018281038252602d815260200180610b78602d913960400191505060405180910390fd5b60035460ff1615610916576040805162461bcd60e51b815260206004820152601f60248201527f636f6e66696775726174696f6e20697320616c7265616479206c6f636b656400604482015290519081900360640190fd5b8051825114610963576040805162461bcd60e51b81526020600482015260146024820152730c2e4e4c2f240e6d2f4ca40dad2e6e6dac2e8c6d60631b604482015290519081900360640190fd5b60005b8151811015610ab9576001600084838151811061097f57fe5b60200260200101516001600160a01b03166001600160a01b031681526020019081526020016000205460025410156109fe576040805162461bcd60e51b815260206004820152601e60248201527f696e7465726e616c206572726f72206f6e20746f74616c20737570706c790000604482015290519081900360640190fd5b60016000848381518110610a0e57fe5b60200260200101516001600160a01b03166001600160a01b0316815260200190815260200160002054600260008282540392505081905550818181518110610a5257fe5b6020026020010151600260008282540192505081905550818181518110610a7557fe5b602002602001015160016000858481518110610a8d57fe5b6020908102919091018101516001600160a01b0316825281019190915260400160002055600101610966565b505050565b60035460ff1681565b6000546001600160a01b03163314610b105760405162461bcd60e51b815260040180806020018281038252602d815260200180610b78602d913960400191505060405180910390fd5b60035460ff1615610b68576040805162461bcd60e51b815260206004820152601f60248201527f636f6e66696775726174696f6e20697320616c7265616479206c6f636b656400604482015290519081900360640190fd5b6003805460ff1916600117905556fe6163636573732064656e6965642c20796f7520617265206e6f742074686520636f6e7472616374206f776e6572a265627a7a72315820cc7a091c3fdded9bbaa7e32d4fcac859da5d432d1d4409c248d1033d1c94641364736f6c634300050f0032",
  "source": "pragma solidity >=0.0;\r\n\r\nimport \"./TokenErc20Ifc.sol\";\r\nimport \"./owned.sol\";\r\n\r\n\r\ncontract Shares is TokenErc20, owned {\r\n    mapping(address => uint256) shareholders;\r\n    uint256 total = 0;\r\n    bool public locked = false; // lock before assembly starts\r\n\r\n    function setShareholder(address shareholder, uint256 votes)\r\n        public\r\n        restrict\r\n    {\r\n        require(!locked, \"configuration is already locked\");\r\n        require(\r\n            total >= shareholders[shareholder],\r\n            \"internal error on total supply\"\r\n        );\r\n        total -= shareholders[shareholder]; // remove previous shares (default: 0)\r\n        total += votes; // add current number of shares\r\n        shareholders[shareholder] = votes;\r\n    }\r\n\r\n    function setShareholders(\r\n        address[] memory shareholder,\r\n        uint256[] memory votes\r\n    ) public restrict {\r\n        require(!locked, \"configuration is already locked\");\r\n        require(shareholder.length == votes.length, \"array size missmatch\");\r\n        for (uint256 i = 0; i < votes.length; ++i) {\r\n            require(\r\n                total >= shareholders[shareholder[i]],\r\n                \"internal error on total supply\"\r\n            );\r\n            total -= shareholders[shareholder[i]]; // remove previous shares (default: 0)\r\n            total += votes[i]; // add current number of shares\r\n            shareholders[shareholder[i]] = votes[i];\r\n        }\r\n    }\r\n\r\n    function lock() public restrict {\r\n        require(!locked, \"configuration is already locked\");\r\n        locked = true;\r\n    }\r\n\r\n    function name() public view returns (string memory) {\r\n        return \"Shareholder Management\";\r\n    }\r\n\r\n    function symbol() public view returns (string memory) {\r\n        return \"$h\";\r\n    }\r\n\r\n    function decimals() public view returns (uint8) {\r\n        return 0;\r\n    }\r\n\r\n    function totalSupply() public view returns (uint256) {\r\n        return total;\r\n    }\r\n\r\n    function balanceOf(address shareholder)\r\n        public\r\n        view\r\n        returns (uint256 balance)\r\n    {\r\n        return shareholders[shareholder];\r\n    }\r\n\r\n    function transfer(address, uint256) public returns (bool success) {\r\n        return false;\r\n    }\r\n\r\n    function transferFrom(\r\n        address,\r\n        address,\r\n        uint256\r\n    ) public returns (bool success) {\r\n        return false;\r\n    }\r\n\r\n    function approve(address, uint256) public returns (bool success) {\r\n        return false;\r\n    }\r\n\r\n    function allowance(address, address)\r\n        public\r\n        view\r\n        returns (uint256 remaining)\r\n    {\r\n        return 0;\r\n    }\r\n\r\n    event Transfer(address indexed _from, address indexed _to, uint256 _value);\r\n    event Approval(\r\n        address indexed _owner,\r\n        address indexed _spender,\r\n        uint256 _value\r\n    );\r\n}\r\n",
  "sourcePath": "D:\\Development\\github\\digitalgv\\contracts\\Shares.sol",
  "compiler": {
    "name": "solc",
    "version": "0.5.15+commit.6a57276f.Emscripten.clang"
  },
  "schemaVersion": "3.0.14",
  "updatedAt": "2020-09-10T18:31:12.429Z",
  "devdoc": {
    "methods": {}
  },
  "userdoc": {
    "methods": {}
  }
}