{
  "contractName": "Voting",
  "abi": [
    {
      "inputs": [
        {
          "internalType": "string",
          "name": "t",
          "type": "string"
        },
        {
          "internalType": "string",
          "name": "p",
          "type": "string"
        },
        {
          "internalType": "contract TokenErc20",
          "name": "token",
          "type": "address"
        }
      ],
      "payable": false,
      "stateMutability": "nonpayable",
      "type": "constructor"
    },
    {
      "anonymous": false,
      "inputs": [
        {
          "indexed": false,
          "internalType": "address",
          "name": "to",
          "type": "address"
        },
        {
          "indexed": false,
          "internalType": "uint256",
          "name": "amount",
          "type": "uint256"
        }
      ],
      "name": "feePaid",
      "type": "event"
    },
    {
      "anonymous": false,
      "inputs": [
        {
          "indexed": false,
          "internalType": "contract owned",
          "name": "receiver",
          "type": "address"
        }
      ],
      "name": "ownedFallback",
      "type": "event"
    },
    {
      "anonymous": false,
      "inputs": [
        {
          "indexed": false,
          "internalType": "contract owned",
          "name": "receiver",
          "type": "address"
        },
        {
          "indexed": false,
          "internalType": "uint256",
          "name": "amount",
          "type": "uint256"
        }
      ],
      "name": "ownedPaymentReceived",
      "type": "event"
    },
    {
      "payable": true,
      "stateMutability": "payable",
      "type": "fallback"
    },
    {
      "constant": false,
      "inputs": [
        {
          "internalType": "address payable",
          "name": "newOwner",
          "type": "address"
        }
      ],
      "name": "changeOwner",
      "outputs": [],
      "payable": false,
      "stateMutability": "nonpayable",
      "type": "function"
    },
    {
      "constant": true,
      "inputs": [],
      "name": "getOwner",
      "outputs": [
        {
          "internalType": "address payable",
          "name": "",
          "type": "address"
        }
      ],
      "payable": false,
      "stateMutability": "view",
      "type": "function"
    },
    {
      "constant": false,
      "inputs": [],
      "name": "withdraw",
      "outputs": [],
      "payable": false,
      "stateMutability": "nonpayable",
      "type": "function"
    },
    {
      "constant": false,
      "inputs": [
        {
          "internalType": "uint256",
          "name": "starttime",
          "type": "uint256"
        },
        {
          "internalType": "uint256",
          "name": "endtime",
          "type": "uint256"
        }
      ],
      "name": "setVotingTime",
      "outputs": [],
      "payable": false,
      "stateMutability": "nonpayable",
      "type": "function"
    },
    {
      "constant": true,
      "inputs": [],
      "name": "title",
      "outputs": [
        {
          "internalType": "string",
          "name": "",
          "type": "string"
        }
      ],
      "payable": false,
      "stateMutability": "view",
      "type": "function"
    },
    {
      "constant": true,
      "inputs": [],
      "name": "proposal",
      "outputs": [
        {
          "internalType": "string",
          "name": "",
          "type": "string"
        }
      ],
      "payable": false,
      "stateMutability": "view",
      "type": "function"
    },
    {
      "constant": true,
      "inputs": [],
      "name": "starttime",
      "outputs": [
        {
          "internalType": "uint256",
          "name": "",
          "type": "uint256"
        }
      ],
      "payable": false,
      "stateMutability": "view",
      "type": "function"
    },
    {
      "constant": true,
      "inputs": [],
      "name": "endtime",
      "outputs": [
        {
          "internalType": "uint256",
          "name": "",
          "type": "uint256"
        }
      ],
      "payable": false,
      "stateMutability": "view",
      "type": "function"
    },
    {
      "constant": true,
      "inputs": [],
      "name": "currenttime",
      "outputs": [
        {
          "internalType": "uint256",
          "name": "",
          "type": "uint256"
        }
      ],
      "payable": false,
      "stateMutability": "view",
      "type": "function"
    },
    {
      "constant": true,
      "inputs": [],
      "name": "aye",
      "outputs": [
        {
          "internalType": "uint256",
          "name": "",
          "type": "uint256"
        }
      ],
      "payable": false,
      "stateMutability": "view",
      "type": "function"
    },
    {
      "constant": true,
      "inputs": [],
      "name": "nay",
      "outputs": [
        {
          "internalType": "uint256",
          "name": "",
          "type": "uint256"
        }
      ],
      "payable": false,
      "stateMutability": "view",
      "type": "function"
    },
    {
      "constant": true,
      "inputs": [],
      "name": "abstain",
      "outputs": [
        {
          "internalType": "uint256",
          "name": "",
          "type": "uint256"
        }
      ],
      "payable": false,
      "stateMutability": "view",
      "type": "function"
    },
    {
      "constant": true,
      "inputs": [],
      "name": "standDown",
      "outputs": [
        {
          "internalType": "uint256",
          "name": "",
          "type": "uint256"
        }
      ],
      "payable": false,
      "stateMutability": "view",
      "type": "function"
    },
    {
      "constant": true,
      "inputs": [],
      "name": "tokenErc20",
      "outputs": [
        {
          "internalType": "contract TokenErc20",
          "name": "",
          "type": "address"
        }
      ],
      "payable": false,
      "stateMutability": "view",
      "type": "function"
    },
    {
      "constant": true,
      "inputs": [
        {
          "internalType": "address",
          "name": "i",
          "type": "address"
        }
      ],
      "name": "voters",
      "outputs": [
        {
          "internalType": "bool",
          "name": "",
          "type": "bool"
        }
      ],
      "payable": false,
      "stateMutability": "view",
      "type": "function"
    },
    {
      "constant": true,
      "inputs": [],
      "name": "resolution",
      "outputs": [
        {
          "internalType": "bool",
          "name": "",
          "type": "bool"
        },
        {
          "internalType": "uint256",
          "name": "",
          "type": "uint256"
        },
        {
          "internalType": "string",
          "name": "",
          "type": "string"
        },
        {
          "internalType": "string",
          "name": "",
          "type": "string"
        }
      ],
      "payable": false,
      "stateMutability": "view",
      "type": "function"
    },
    {
      "constant": true,
      "inputs": [],
      "name": "closed",
      "outputs": [
        {
          "internalType": "bool",
          "name": "",
          "type": "bool"
        }
      ],
      "payable": false,
      "stateMutability": "view",
      "type": "function"
    },
    {
      "constant": true,
      "inputs": [],
      "name": "started",
      "outputs": [
        {
          "internalType": "bool",
          "name": "",
          "type": "bool"
        }
      ],
      "payable": false,
      "stateMutability": "view",
      "type": "function"
    },
    {
      "constant": true,
      "inputs": [],
      "name": "running",
      "outputs": [
        {
          "internalType": "bool",
          "name": "",
          "type": "bool"
        }
      ],
      "payable": false,
      "stateMutability": "view",
      "type": "function"
    },
    {
      "constant": true,
      "inputs": [],
      "name": "accepted",
      "outputs": [
        {
          "internalType": "bool",
          "name": "",
          "type": "bool"
        }
      ],
      "payable": false,
      "stateMutability": "view",
      "type": "function"
    },
    {
      "constant": true,
      "inputs": [],
      "name": "rejected",
      "outputs": [
        {
          "internalType": "bool",
          "name": "",
          "type": "bool"
        }
      ],
      "payable": false,
      "stateMutability": "view",
      "type": "function"
    },
    {
      "constant": true,
      "inputs": [],
      "name": "votes",
      "outputs": [
        {
          "internalType": "uint256",
          "name": "",
          "type": "uint256"
        },
        {
          "internalType": "uint256",
          "name": "",
          "type": "uint256"
        }
      ],
      "payable": false,
      "stateMutability": "view",
      "type": "function"
    },
    {
      "constant": true,
      "inputs": [
        {
          "internalType": "address",
          "name": "sender",
          "type": "address"
        }
      ],
      "name": "canVote",
      "outputs": [
        {
          "internalType": "bool",
          "name": "",
          "type": "bool"
        }
      ],
      "payable": false,
      "stateMutability": "view",
      "type": "function"
    },
    {
      "constant": false,
      "inputs": [
        {
          "internalType": "bytes32",
          "name": "hash",
          "type": "bytes32"
        },
        {
          "internalType": "uint8",
          "name": "v",
          "type": "uint8"
        },
        {
          "internalType": "bytes32",
          "name": "r",
          "type": "bytes32"
        },
        {
          "internalType": "bytes32",
          "name": "s",
          "type": "bytes32"
        }
      ],
      "name": "voteYes",
      "outputs": [
        {
          "internalType": "bytes",
          "name": "message",
          "type": "bytes"
        },
        {
          "internalType": "address",
          "name": "shareholder",
          "type": "address"
        },
        {
          "internalType": "uint256",
          "name": "shares",
          "type": "uint256"
        }
      ],
      "payable": false,
      "stateMutability": "nonpayable",
      "type": "function"
    },
    {
      "constant": false,
      "inputs": [
        {
          "internalType": "bytes32",
          "name": "hash",
          "type": "bytes32"
        },
        {
          "internalType": "uint8",
          "name": "v",
          "type": "uint8"
        },
        {
          "internalType": "bytes32",
          "name": "r",
          "type": "bytes32"
        },
        {
          "internalType": "bytes32",
          "name": "s",
          "type": "bytes32"
        }
      ],
      "name": "voteNo",
      "outputs": [
        {
          "internalType": "bytes",
          "name": "message",
          "type": "bytes"
        },
        {
          "internalType": "address",
          "name": "shareholder",
          "type": "address"
        },
        {
          "internalType": "uint256",
          "name": "shares",
          "type": "uint256"
        }
      ],
      "payable": false,
      "stateMutability": "nonpayable",
      "type": "function"
    },
    {
      "constant": false,
      "inputs": [
        {
          "internalType": "bytes32",
          "name": "hash",
          "type": "bytes32"
        },
        {
          "internalType": "uint8",
          "name": "v",
          "type": "uint8"
        },
        {
          "internalType": "bytes32",
          "name": "r",
          "type": "bytes32"
        },
        {
          "internalType": "bytes32",
          "name": "s",
          "type": "bytes32"
        }
      ],
      "name": "abstainVoting",
      "outputs": [
        {
          "internalType": "bytes",
          "name": "message",
          "type": "bytes"
        },
        {
          "internalType": "address",
          "name": "shareholder",
          "type": "address"
        },
        {
          "internalType": "uint256",
          "name": "shares",
          "type": "uint256"
        }
      ],
      "payable": false,
      "stateMutability": "nonpayable",
      "type": "function"
    },
    {
      "constant": false,
      "inputs": [
        {
          "internalType": "bytes32",
          "name": "hash",
          "type": "bytes32"
        },
        {
          "internalType": "uint8",
          "name": "v",
          "type": "uint8"
        },
        {
          "internalType": "bytes32",
          "name": "r",
          "type": "bytes32"
        },
        {
          "internalType": "bytes32",
          "name": "s",
          "type": "bytes32"
        }
      ],
      "name": "standDownVoting",
      "outputs": [
        {
          "internalType": "bytes",
          "name": "message",
          "type": "bytes"
        },
        {
          "internalType": "address",
          "name": "shareholder",
          "type": "address"
        },
        {
          "internalType": "uint256",
          "name": "shares",
          "type": "uint256"
        }
      ],
      "payable": false,
      "stateMutability": "nonpayable",
      "type": "function"
    }
  ],
  "bytecode": "0x60806040523480156200001157600080fd5b5060405162001a5e38038062001a5e833981810160405260608110156200003757600080fd5b81019080805160405193929190846401000000008211156200005857600080fd5b9083019060208201858111156200006e57600080fd5b82516401000000008111828201881017156200008957600080fd5b82525081516020918201929091019080838360005b83811015620000b85781810151838201526020016200009e565b50505050905090810190601f168015620000e65780820380516001836020036101000a031916815260200191505b50604052602001805160405193929190846401000000008211156200010a57600080fd5b9083019060208201858111156200012057600080fd5b82516401000000008111828201881017156200013b57600080fd5b82525081516020918201929091019080838360005b838110156200016a57818101518382015260200162000150565b50505050905090810190601f168015620001985780820380516001836020036101000a031916815260200191505b5060405260200151600080546001600160a01b031916331790558451909250151590506200020d576040805162461bcd60e51b815260206004820152601860248201527f766f74696e67207469746c652069732072657175697265640000000000000000604482015290519081900360640190fd5b600082511162000264576040805162461bcd60e51b815260206004820152601b60248201527f766f74696e672070726f706f73616c2069732072657175697265640000000000604482015290519081900360640190fd5b825162000279906001906020860190620002c3565b5081516200028f906002906020850190620002c3565b5060006003819055600455600980546001600160a01b0319166001600160a01b039290921691909117905550620003689050565b828054600181600116156101000203166002900490600052602060002090601f016020900481019282601f106200030657805160ff191683800117855562000336565b8280016001018555821562000336579182015b828111156200033657825182559160200191906001019062000319565b506200034492915062000348565b5090565b6200036591905b808211156200034457600081556001016200034f565b90565b6116e680620003786000396000f3fe60806040526004361061019c5760003560e01c806389bb8fb8116100ec578063bf9cfb4a1161008a578063da5060f711610064578063da5060f714610756578063e168c3ec1461076b578063ea2fe1a214610799578063fc0f58ad146107ae5761019c565b8063bf9cfb4a14610717578063d13b0e641461072c578063d85bd526146107415761019c565b8063a3ec138d116100c6578063a3ec138d1461064e578063a6f9dae114610681578063a78cb831146106b4578063adfaa72e146106e45761019c565b806389bb8fb8146105bb5780638da58897146105fa578063a2c10bba1461060f5761019c565b80635e98e4c7116101595780637173c4e9116101335780637173c4e91461044d57806371e214951461048c578063753ec10314610591578063893d20e8146105a65761019c565b80635e98e4c71461034c578063648b9d021461036157806367fe5a0c146104385761019c565b80631f2698ab146102175780632ca126f8146102405780633ccfd60b146102675780634a79d50c1461027c578063597e1fb5146103065780635baf3e8d1461031b575b34156101e1576040805130815234602082015281517f8fd6b35340456e2a6b48f69253f74dfd4d2e7162c8bffe82ebeb2c6023510d37929181900390910190a1610215565b6040805130815290517f38d054b4060bd74d4e61feceaa76523abec62fbee912392a3cce6d2c4a15388e9181900360200190a15b005b34801561022357600080fd5b5061022c6107c3565b604080519115158252519081900360200190f35b34801561024c57600080fd5b506102556107eb565b60408051918252519081900360200190f35b34801561027357600080fd5b506102156107f1565b34801561028857600080fd5b50610291610877565b6040805160208082528351818301528351919283929083019185019080838360005b838110156102cb5781810151838201526020016102b3565b50505050905090810190601f1680156102f85780820380516001836020036101000a031916815260200191505b509250505060405180910390f35b34801561031257600080fd5b5061022c61090c565b34801561032757600080fd5b50610330610932565b604080516001600160a01b039092168252519081900360200190f35b34801561035857600080fd5b50610255610941565b34801561036d57600080fd5b506103a06004803603608081101561038457600080fd5b5080359060ff6020820135169060408101359060600135610991565b6040518080602001846001600160a01b03166001600160a01b03168152602001838152602001828103825285818151815260200191508051906020019080838360005b838110156103fb5781810151838201526020016103e3565b50505050905090810190601f1680156104285780820380516001836020036101000a031916815260200191505b5094505050505060405180910390f35b34801561044457600080fd5b5061022c6109e1565b34801561045957600080fd5b506103a06004803603608081101561047057600080fd5b5080359060ff6020820135169060408101359060600135610a35565b34801561049857600080fd5b506104a1610a82565b60405180851515151581526020018481526020018060200180602001838103835285818151815260200191508051906020019080838360005b838110156104f25781810151838201526020016104da565b50505050905090810190601f16801561051f5780820380516001836020036101000a031916815260200191505b50838103825284518152845160209182019186019080838360005b8381101561055257818101518382015260200161053a565b50505050905090810190601f16801561057f5780820380516001836020036101000a031916815260200191505b50965050505050505060405180910390f35b34801561059d57600080fd5b50610291610c03565b3480156105b257600080fd5b50610330610c61565b3480156105c757600080fd5b506103a0600480360360808110156105de57600080fd5b5080359060ff6020820135169060408101359060600135610cbb565b34801561060657600080fd5b50610255610d04565b34801561061b57600080fd5b506103a06004803603608081101561063257600080fd5b5080359060ff6020820135169060408101359060600135610d0a565b34801561065a57600080fd5b5061022c6004803603602081101561067157600080fd5b50356001600160a01b0316610d52565b34801561068d57600080fd5b50610215600480360360208110156106a457600080fd5b50356001600160a01b0316610d70565b3480156106c057600080fd5b50610215600480360360408110156106d757600080fd5b5080359060200135610ddb565b3480156106f057600080fd5b5061022c6004803603602081101561070757600080fd5b50356001600160a01b0316610ff6565b34801561072357600080fd5b5061025561102c565b34801561073857600080fd5b5061022c611030565b34801561074d57600080fd5b5061022c611085565b34801561076257600080fd5b506102556110a4565b34801561077757600080fd5b506107806110f4565b6040805192835260208301919091528051918290030190f35b3480156107a557600080fd5b5061025561114a565b3480156107ba57600080fd5b5061025561119a565b600354600090158015906107d8575060045415155b80156107e657506003544210155b905090565b60045490565b6000546001600160a01b0316331461083a5760405162461bcd60e51b815260040180806020018281038252602d815260200180611657602d913960400191505060405180910390fd5b600080546040516001600160a01b03909116914780156108fc02929091818181858888f19350505050158015610874573d6000803e3d6000fd5b50565b60018054604080516020601f600260001961010087891615020190951694909404938401819004810282018101909252828152606093909290918301828280156109025780601f106108d757610100808354040283529160200191610902565b820191906000526020600020905b8154815290600101906020018083116108e557829003601f168201915b5050505050905090565b60035460009015801590610921575060045415155b80156107e657505060045442101590565b6009546001600160a01b031690565b600061094b61090c565b61098a576040805162461bcd60e51b81526020600482015260156024820152600080516020611637833981519152604482015290519081900360640190fd5b5060075490565b60606000806109c96040518060400160405280600e81526020016d029aa20a7222fa227aba71037b7160951b815250888888886111ea565b60088054820190559199909850909650945050505050565b60006109eb61090c565b610a2a576040805162461bcd60e51b81526020600482015260156024820152600080516020611637833981519152604482015290519081900360640190fd5b506006546005541190565b6060600080610a6a6040518060400160405280600b81526020016a020a129aa20a4a71037b7160ad1b815250888888886111ea565b60078054820190559199909850909650945050505050565b600080606080610a9061090c565b610acf576040805162461bcd60e51b81526020600482015260156024820152600080516020611637833981519152604482015290519081900360640190fd5b610ad76109e1565b600454600180546040805160206002848616156101000260001901909416849004601f810182900482028301820190935282825290918491830182828015610b605780601f10610b3557610100808354040283529160200191610b60565b820191906000526020600020905b815481529060010190602001808311610b4357829003601f168201915b5050845460408051602060026001851615610100026000190190941693909304601f810184900484028201840190925281815295975086945092508401905082828015610bee5780601f10610bc357610100808354040283529160200191610bee565b820191906000526020600020905b815481529060010190602001808311610bd157829003601f168201915b50505050509050935093509350935090919293565b60028054604080516020601f60001961010060018716150201909416859004938401819004810282018101909252828152606093909290918301828280156109025780601f106108d757610100808354040283529160200191610902565b600080546001600160a01b03163314610cab5760405162461bcd60e51b815260040180806020018281038252602d815260200180611657602d913960400191505060405180910390fd5b506000546001600160a01b031690565b6060600080610cec6040518060400160405280600781526020016602ca2a99037b7160cd1b815250888888886111ea565b60058054820190559199909850909650945050505050565b60035490565b6060600080610d3a60405180604001604052806006815260200165027279037b7160d51b815250888888886111ea565b60068054820190559199909850909650945050505050565b6001600160a01b03166000908152600a602052604090205460ff1690565b6000546001600160a01b03163314610db95760405162461bcd60e51b815260040180806020018281038252602d815260200180611657602d913960400191505060405180910390fd5b600080546001600160a01b0319166001600160a01b0392909216919091179055565b6000546001600160a01b03163314610e245760405162461bcd60e51b815260040180806020018281038252602d815260200180611657602d913960400191505060405180910390fd5b81158015610e325750600081115b15610e3d5742915081015b80610e8f576040805162461bcd60e51b815260206004820152601760248201527f656e647474696d65206973206e6f7420646566696e6564000000000000000000604482015290519081900360640190fd5b81610ee1576040805162461bcd60e51b815260206004820152601760248201527f7374617274696d65206973206e6f7420646566696e6564000000000000000000604482015290519081900360640190fd5b818111610f35576040805162461bcd60e51b815260206004820152601f60248201527f656e647474696d65206973206e6f7420616674657220737461727474696d6500604482015290519081900360640190fd5b42821015610f8a576040805162461bcd60e51b815260206004820181905260248201527f73746172742074696d65206d75737420626520696e2074686520667574757265604482015290519081900360640190fd5b600354158015610f9a5750600454155b610feb576040805162461bcd60e51b815260206004820152601a60248201527f74696d6520697320616c726561647920636f6e66696775726564000000000000604482015290519081900360640190fd5b600391909155600455565b600061100061090c565b15801561102657506001600160a01b0382166000908152600a602052604090205460ff16155b92915050565b4290565b600061103a61090c565b611079576040805162461bcd60e51b81526020600482015260156024820152600080516020611637833981519152604482015290519081900360640190fd5b50600654600554111590565b600061108f6107c3565b80156107e6575061109e61090c565b15905090565b60006110ae61090c565b6110ed576040805162461bcd60e51b81526020600482015260156024820152600080516020611637833981519152604482015290519081900360640190fd5b5060085490565b6000806110ff61090c565b61113e576040805162461bcd60e51b81526020600482015260156024820152600080516020611637833981519152604482015290519081900360640190fd5b50506005546006549091565b600061115461090c565b611193576040805162461bcd60e51b81526020600482015260156024820152600080516020611637833981519152604482015290519081900360640190fd5b5060065490565b60006111a461090c565b6111e3576040805162461bcd60e51b81526020600482015260156024820152600080516020611637833981519152604482015290519081900360640190fd5b5060055490565b60606000806111f761090c565b15611249576040805162461bcd60e51b815260206004820152601860248201527f766f74696e6720697320616c726561647920636c6f7365640000000000000000604482015290519081900360640190fd5b6112516107c3565b6112a2576040805162461bcd60e51b815260206004820152601960248201527f766f74696e67206973206e6f7420796574207374617274656400000000000000604482015290519081900360640190fd5b876112ac306115b5565b6040516020018083805190602001908083835b602083106112de5780518252601f1990920191602091820191016112bf565b51815160209384036101000a600019018019909216911617905285519190930192850191508083835b602083106113265780518252601f199092019160209182019101611307565b6001836020036101000a038019825116818451168082178552505050505050905001925050506040516020818303038152906040529250828051906020012087146113b0576040805162461bcd60e51b81526020600482015260156024820152741ddc9bdb99c81a185cda081d985b1d59481cd95b9d605a1b604482015290519081900360640190fd5b604080516000815260208082018084528a905260ff8916828401526060820188905260808201879052915160019260a0808401939192601f1981019281900390910190855afa158015611407573d6000803e3d6000fd5b5050604051601f1901519250506001600160a01b0382166114595760405162461bcd60e51b815260040180806020018281038252602e815260200180611684602e913960400191505060405180910390fd5b6001600160a01b0382166000908152600a602052604090205460ff16156114b7576040805162461bcd60e51b815260206004820152600d60248201526c185b1c9958591e481d9bdd1959609a1b604482015290519081900360640190fd5b600954604080516370a0823160e01b81526001600160a01b038581166004830152915191909216916370a08231916024808301926020929190829003018186803b15801561150457600080fd5b505afa158015611518573d6000803e3d6000fd5b505050506040513d602081101561152e57600080fd5b5051905080611584576040805162461bcd60e51b815260206004820152601b60248201527f6e6f7420612076616c696461746564207368617265686f6c6465720000000000604482015290519081900360640190fd5b6001600160a01b0382166000908152600a60205260409020805460ff19166001179055919790965090945092505050565b60408051601480825281830190925260609182919060208201818038833901905050905060005b601481101561162f578060130360080260020a846001600160a01b03168161160057fe5b0460f81b82828151811061161057fe5b60200101906001600160f81b031916908160001a9053506001016115dc565b509291505056fe766f74696e67206e6f742079657420636c6f73656400000000000000000000006163636573732064656e6965642c20796f7520617265206e6f742074686520636f6e7472616374206f776e65726964656e74696669636174696f6e206661696c65642064756520746f20696e76616c6964207369676e6174757265a265627a7a72315820038be80362e7e19cf955e29b7ad7107ec4748a1c3567bdc90a5a0a06347b0d9264736f6c634300050f0032",
  "source": "pragma solidity >=0.0;\r\n\r\nimport \"./owned.sol\";\r\nimport \"./TokenErc20Ifc.sol\";\r\nimport \"./VotingIfc.sol\";\r\n\r\ncontract Voting is VotingIfc, owned {\r\n    struct Data {\r\n        string title;\r\n        string proposal;\r\n        uint256 starttime;\r\n        uint256 endtime;\r\n        uint256 aye;\r\n        uint256 nay;\r\n        uint256 abstain;\r\n        uint256 standDown;\r\n        TokenErc20 tokenErc20;\r\n        mapping(address => bool) voters;\r\n    }\r\n    Data internal voting;\r\n    modifier isclosed {\r\n        require(closed(), \"voting not yet closed\");\r\n        _;\r\n    }\r\n    modifier isRunning {\r\n        require(!closed(), \"voting is already closed\");\r\n        require(started(), \"voting is not yet started\");\r\n        _;\r\n    }\r\n\r\n    constructor(\r\n        string memory t,\r\n        string memory p,\r\n        TokenErc20 token\r\n    ) public {\r\n        require(bytes(t).length > 0, \"voting title is required\");\r\n        require(bytes(p).length > 0, \"voting proposal is required\");\r\n        voting.title = t;\r\n        voting.proposal = p;\r\n        voting.starttime = 0;\r\n        voting.endtime = 0;\r\n        voting.tokenErc20 = token;\r\n    }\r\n\r\n    function setVotingTime(uint256 starttime, uint256 endtime) public restrict {\r\n        if (starttime == 0 && endtime > 0) {\r\n            starttime = now;\r\n            endtime += starttime;\r\n        }\r\n        require(endtime != 0, \"endttime is not defined\");\r\n        require(starttime != 0, \"startime is not defined\");\r\n        require(endtime > starttime, \"endttime is not after starttime\");\r\n        require(starttime >= now, \"start time must be in the future\");\r\n        require(\r\n            voting.starttime == 0 && voting.endtime == 0,\r\n            \"time is already configured\"\r\n        );\r\n        voting.starttime = starttime;\r\n        voting.endtime = endtime;\r\n    }\r\n\r\n    function title() public view returns (string memory) {\r\n        return voting.title;\r\n    }\r\n\r\n    function proposal() public view returns (string memory) {\r\n        return voting.proposal;\r\n    }\r\n\r\n    function starttime() public view returns (uint256) {\r\n        return voting.starttime;\r\n    }\r\n\r\n    function endtime() public view returns (uint256) {\r\n        return voting.endtime;\r\n    }\r\n\r\n    function currenttime() public view returns (uint256) {\r\n        return now;\r\n    }\r\n\r\n    function aye() public view isclosed returns (uint256) {\r\n        return voting.aye;\r\n    }\r\n\r\n    function nay() public view isclosed returns (uint256) {\r\n        return voting.nay;\r\n    }\r\n\r\n    function abstain() public view isclosed returns (uint256) {\r\n        return voting.abstain;\r\n    }\r\n\r\n    function standDown() public view isclosed returns (uint256) {\r\n        return voting.standDown;\r\n    }\r\n\r\n    function tokenErc20() public view returns (TokenErc20) {\r\n        return voting.tokenErc20;\r\n    }\r\n\r\n    function voters(address i) public view returns (bool) {\r\n        return voting.voters[i];\r\n    }\r\n\r\n    function resolution()\r\n        public\r\n        view\r\n        isclosed\r\n        returns (\r\n            bool,\r\n            uint256,\r\n            string memory,\r\n            string memory\r\n        )\r\n    {\r\n        return (accepted(), voting.endtime, voting.title, voting.proposal);\r\n    }\r\n\r\n    function closed() public view returns (bool) {\r\n        return\r\n            voting.starttime > 0 && voting.endtime > 0 && now >= voting.endtime;\r\n    }\r\n\r\n    function started() public view returns (bool) {\r\n        return\r\n            voting.starttime > 0 &&\r\n            voting.endtime > 0 &&\r\n            now >= voting.starttime;\r\n    }\r\n\r\n    function running() public view returns (bool) {\r\n        return started() && !closed();\r\n    }\r\n\r\n    function accepted() public view isclosed returns (bool) {\r\n        return voting.aye > voting.nay;\r\n    }\r\n\r\n    function rejected() public view isclosed returns (bool) {\r\n        return voting.aye <= voting.nay;\r\n    }\r\n\r\n    function votes() public view isclosed returns (uint256, uint256) {\r\n        return (voting.aye, voting.nay);\r\n    }\r\n\r\n    function canVote(address sender) public view returns (bool) {\r\n        return !closed() && !voting.voters[sender];\r\n    }\r\n\r\n    function addressToBytes(address a) internal pure returns (bytes memory) {\r\n        bytes memory b = new bytes(20);\r\n        for (uint256 i = 0; i < 20; i++)\r\n            b[i] = bytes1(uint8(uint256(a) / (2**(8 * (19 - i)))));\r\n        return b;\r\n    }\r\n\r\n    function castVote(\r\n        string memory text,\r\n        bytes32 hash,\r\n        uint8 v,\r\n        bytes32 r,\r\n        bytes32 s\r\n    )\r\n        internal\r\n        isRunning\r\n        returns (\r\n            bytes memory message,\r\n            address shareholder,\r\n            uint256 shares\r\n        )\r\n    {\r\n        message = abi.encodePacked(text, addressToBytes(address(this)));\r\n        require(hash == keccak256(message), \"wrong hash value sent\");\r\n        shareholder = ecrecover(hash, v, r, s);\r\n        require(\r\n            shareholder != address(0x0),\r\n            \"identification failed due to invalid signature\"\r\n        );\r\n        require(!voting.voters[shareholder], \"already voted\");\r\n        shares = voting.tokenErc20.balanceOf(shareholder);\r\n        require(shares > 0, \"not a validated shareholder\");\r\n        voting.voters[shareholder] = true;\r\n    }\r\n\r\n    function voteYes(\r\n        bytes32 hash,\r\n        uint8 v,\r\n        bytes32 r,\r\n        bytes32 s\r\n    )\r\n        public\r\n        returns (\r\n            bytes memory message,\r\n            address shareholder,\r\n            uint256 shares\r\n        )\r\n    {\r\n        (message, shareholder, shares) = castVote(\"YES on \", hash, v, r, s);\r\n        voting.aye += shares;\r\n    }\r\n\r\n    function voteNo(\r\n        bytes32 hash,\r\n        uint8 v,\r\n        bytes32 r,\r\n        bytes32 s\r\n    )\r\n        public\r\n        returns (\r\n            bytes memory message,\r\n            address shareholder,\r\n            uint256 shares\r\n        )\r\n    {\r\n        (message, shareholder, shares) = castVote(\"NO on \", hash, v, r, s);\r\n        voting.nay += shares;\r\n    }\r\n\r\n    function abstainVoting(\r\n        bytes32 hash,\r\n        uint8 v,\r\n        bytes32 r,\r\n        bytes32 s\r\n    )\r\n        public\r\n        returns (\r\n            bytes memory message,\r\n            address shareholder,\r\n            uint256 shares\r\n        )\r\n    {\r\n        (message, shareholder, shares) = castVote(\"ABSTAIN on \", hash, v, r, s);\r\n        voting.abstain += shares;\r\n    }\r\n\r\n    function standDownVoting(\r\n        bytes32 hash,\r\n        uint8 v,\r\n        bytes32 r,\r\n        bytes32 s\r\n    )\r\n        public\r\n        returns (\r\n            bytes memory message,\r\n            address shareholder,\r\n            uint256 shares\r\n        )\r\n    {\r\n        (message, shareholder, shares) = castVote(\r\n            \"STAND_DOWN on \",\r\n            hash,\r\n            v,\r\n            r,\r\n            s\r\n        );\r\n        voting.standDown += shares;\r\n    }\r\n}\r\n",
  "sourcePath": "D:/Development/github/digitalgv/contracts/Voting.sol",
  "compiler": {
    "name": "solc",
    "version": "0.5.15+commit.6a57276f.Emscripten.clang"
  },
  "schemaVersion": "3.0.14",
  "updatedAt": "2020-09-10T18:26:10.029Z",
  "devdoc": {
    "methods": {}
  },
  "userdoc": {
    "methods": {}
  }
}